:020000040800F2
:100000000000022061CB000879F50008FDF500082A
:1000100011F6000831F6000839F60008000000006B
:1000200000000000000000000000000061CC00089B
:1000300041F6000800000000F1CC000845F6000879
:10004000B5CB0008B5CB0008B5CB0008B5CB000890
:10005000B5CB0008B5CB0008711202089112020856
:10006000B1120208D1120208F112020849F6000882
:10007000B5CB000855F60008B5CB000861F60008BE
:100080006DF6000879F60008B5CB000891F6000877
:100090009DF60008A9F60008B5F60008111302083D
:1000A000B5CB0008B5CB0008B5CB0008B5CB000830
:1000B000B5CB0008B5CB0008B5CB000835DB000890
:1000C00041DB0008B5CB0008B5CB0008B5CB000874
:1000D000B5CB0008B5CB0008C1F60008B5CB0008C9
:1000E00095130208B5CB0008B5CB0008B5CB0008C6
:1000F000A9D80008CDF60008B5CB000885F60008A1
:10010000B5CB0008B5CB00089DD80008E9F600087B
:10011000F5F60008B5CB0008B5CB0008B5CB000854
:10012000B5CB0008B5CB0008B5CB0008B5CB0008AF
:10013000B5CB00080000000000000000B5CB0008AF
:10014000B5CB0008B5CB0008B5CB00084DDB0008E7
:10015000B5CB0008B5CB0008B5CB0008B5CB00087F
:10016000B5CB0008B5CB0008B5CB0008B5CB00086F
:10017000B5CB000851D900080000000000000000C5
:08018000B5CB0008B5CB000867
:1001C0000348044B834202D0034B03B118477047E6
:1001D000A80C0020A80C0020000000000548064BD9
:1001E0001B1AD90F01EBA301491002D0034B03B135
:1001F00018477047A80C0020A80C00200000000041
:1002000010B5064C237843B9FFF7DAFF044B13B15E
:100210000448AFF300800123237010BDA80C002018
:10022000000000009C8F030808B5044B1BB1044973
:100230000448AFF30080BDE80840CFE700000000AD
:10024000AC0C00209C8F030810EE103AC3F3C75289
:100250007F3A162A194615DC002A0CDB0C4810419F
:10026000184205D04FF4800313410B4423EA0003E6
:1002700000EE103A7047013203F00043F8D143F02A
:100280007E53F5E7802AF3D130EE000A704700BFB5
:10029000FFFF7F0010EE102AC2F3C7537F3B162BDF
:1002A00022F0004129DC002B104618DB1A491941C5
:1002B0000A4221D0DFED197A70EE277AF5EEC07A86
:1002C000F1EE10FA18DD002A04DA4FF4000242FAC7
:1002D00003F3184420EA010300EE103A7047DFED03
:1002E0000F7A70EE277AF5EEC07AF1EE10FA03DDA0
:1002F000002A08DB9FED0A0A7047B1F1FF4FFBD3DC
:1003000030EE000A7047DFED077A0029BFEE000AE1
:1003100008BFB0EE670A7047FFFF7F00CAF249715D
:10032000000000000000008010B4044C03460A46A0
:1003300020685DF8044B194601F0F4BF1802002054
:1003400000B5054B83B0014601AA186801F0EAFF29
:1003500003B05DF804FB00BF18020020000000009D
:10036000000000000000000000000000000000008D
:10037000000000000000000000000000000000007D
:1003800030B490F800F020F007016FF0000C10F08E
:10039000070491F820F040F048804FF000046FF01F
:1003A0000700D1E9002391F840F000F1080082FA3B
:1003B0004CF2A4FA8CF283FA4CF3A2FA8CF34BBB06
:1003C000D1E9022382FA4CF200F10800A4FA8CF27F
:1003D00083FA4CF3A2FA8CF3E3B9D1E9042382FA4D
:1003E0004CF200F10800A4FA8CF283FA4CF3A2FA62
:1003F0008CF37BB9D1E9062301F1200182FA4CF29A
:1004000000F10800A4FA8CF283FA4CF3A2FA8CF300
:10041000002BC6D0002A04BF04301A4612BAB2FA22
:1004200082F200EBD20030BC7047D1E9002304F027
:100430000305C4F100004FEAC50514F0040F91F85C
:1004400040F00CFA05F562EA05021CBF63EA0503F9
:1004500062464FF00004AAE7830730B547D0541E28
:10046000002A3ED0CAB2034601E0013C39D303F86A
:10047000012B9D07F9D1032C2CD9CDB205EB052515
:100480000F2C05EB054535D9A4F1100222F00F0C15
:1004900003F1100EE6444FEA121C1A46C2E9005559
:1004A000C2E9025510327245F8D10CF1010214F084
:1004B0000C0F03EB021204F00F0C13D0ACF1040389
:1004C00023F003030433134442F8045B9342FBD14B
:1004D0000CF003042CB1C9B21C4403F8011BA34265
:1004E000FBD130BD64461346002CF4D1F9E7034636
:1004F0001446C0E71A46A446E0E700BF0EB470B544
:100500009DB021AC00254FF4017254F8046BADF896
:1005100014201B9502900690FFF732FF0B4B0A93B5
:100520000B4B03904FF6FF710790ADF8161018684B
:100530000E953246234602A91395019400F092FBD2
:100540001DB0BDE8704003B0704700BF69210008CE
:10055000180200200CB4F0B59DB022AC00254FF479
:1005600001730646084654F8047BADF81430029136
:1005700006911B95FFF704FF0346039307930A4B6D
:100580000A934FF6FF73ADF816303A4630462346CD
:1005900002A90E951395019400F064FB1DB0BDE80F
:1005A000F04002B0704700BF6921000811F0FF0160
:1005B000034600F0030239D08ABB026810B501EB94
:1005C000012E0EEB0E4E8EEA0204A2F1013323EA55
:1005D0000203A4F1013222EA0402134313F0803F24
:1005E0000FD150F8044F84EA0E0CA4F10133ACF1A2
:1005F000013223EA040322EA0C02134313F0803F82
:10060000EFD0037823B936E010F8013F002B32D049
:100610009942F9D110BD8A4228D09A0729D01A7878
:1006200018460133002AF6D110467047CAB902684D
:10063000A2F1013323EA020313F0803F08D150F8FE
:10064000042FA2F1013323EA020313F0803FF6D016
:1006500003785BB110F8013F002BFBD1704799077D
:1006600005D0184613F8012B002AF8D17047184618
:10067000DDE71846A1E7184610BD00BF00000000E6
:1006800002780B78012A28BF9A4240F0D8806DE9A1
:10069000044540EA0104CDE902676FF0000C4FEA1F
:1006A00044721AB380EA010414F0070F6BD100F012
:1006B000070420F0070004F0030521F007014FEACA
:1006C000C505F0E8042314F0040FF1E804670CFA00
:1006D00005F462EA040266EA04060BD063EA040346
:1006E000624667EA0407664604E000BFF0E80423B8
:1006F000F1E8046782FA4CF582EA0604A4FA8CF465
:100700006CBB83FA4CF583EA0705A5FA8CF595B91D
:1007100050E9022351E9026782FA4CF582EA0604A5
:10072000A4FA8CF483FA4CF583EA0705A5FA8CF554
:100730002543DBD09CB92DBAB5FA85F424F0070423
:1007400027FA04F1DDE9026723FA04F303F0FF005E
:1007500001F0FF01FDE80445A0EB0100704724BA59
:10076000B4FA84F424F0070426FA04F1DDE9026700
:1007700022FA04F202F0FF0001F0FF01FDE8044557
:10078000A0EB0100704714F0030F3CD110F00304FC
:1007900028D150F8082B51F8083B82FA4CF582EA30
:1007A0000305A5FA8CF55DB950F8042C51F8043C0A
:1007B00082FA4CF582EA0305A5FA8CF5002DE8D003
:1007C0002DBAB5FA85F424F0070423FA04F122FACD
:1007D00004F202F0FF0001F0FF01FDE80445A0EB88
:1007E000010070474FEAC40420F0030050F8082BC2
:1007F00021F0030151F8083B0CFA04F462EA040208
:1008000063EA0403C9E710F003041DD0A1EB04015F
:1008100020F00300E40750F8042B06D012D28B78A6
:100820005FFAA2F4E41A06D12BB1CB785FFAB2F4E6
:10083000E41A00D133B920465DF8104B7047A2EBA3
:100840000300704701F1040150F8042BCC0721F09C
:10085000030151F8043B48D824D222F07F4482FAA5
:100860004CF594EA1325A5FA8CF50AD165B951F82F
:10087000043B84EA0204B4EB036F0ED150F8042B5E
:10088000EBE74FEA132355E035F07F454DD108786B
:10089000FDE80445C0F1000070474FEA126203F022
:1008A000FF0347E002EA1C4482FA4CF594EA134540
:1008B000A5FA8CF50AD165B951F8043B84EA020423
:1008C000B4EB034F0CD150F8042BEBE74FEA134382
:1008D00030E015EA1C4528D10B884FEA124229E086
:1008E0004FEA124203EA1C4324E002F0FF0482FABA
:1008F0004CF594EA1365A5FA8CF50AD165B951F85F
:10090000043B84EA0204B4EB032F09D150F8042B12
:10091000EBE74FEA13630DE015F0FF0F05D10B680D
:100920004FEA122223F07F4304E04FF00000FDE87D
:100930000445704712BA1BBA82FA4CF482EA0304E7
:10094000A4FA8CF5B5FA85F402FA04F203FA04F37A
:100950004FEA1260FDE80445A0EB1360704700BF4A
:100960002DE9F047074649480E46354616F801EB93
:1009700010F80EC01CF0080CF7D1BEF12D0F5AD0A4
:10098000BEF12B0F03BF96F800E06446AE1C644630
:100990004BB9BEF1300F5CD00A23DFF8F4804FF082
:1009A000050A99460AE0102B4AD04FF0FF38B8FBF1
:1009B000F3F803FB08FA6FEA0A0A9946002528466D
:1009C00005E02CD009FB00C0012516F801EBAEF1C3
:1009D000300CBCF1090F06D9AEF1410CBCF1190F76
:1009E0000BD8AEF1370C634510DDB5F1FF3FECD00D
:1009F0004045E6D94FF0FF35E7E7AEF1610CBCF1B9
:100A0000190F03D8AEF1570C6345EEDC6B1C0BD00D
:100A100004B140420AB165B91160BDE8F087D44520
:100A2000D0DD4FF0FF35D0E722233B602846002A77
:100A3000F3D0711EF0E796F800E00124AE1CA7E7A2
:100A4000BEF1300F11D04FF00F0A6FF07048994689
:100A5000B4E7337803F0DF03582B0BD008234FF0B3
:100A6000070A6FF060489946A8E7307800F0DF0089
:100A70005828E8D14FF0100996F801E04FF00F0A1E
:100A800002366FF070484B4698E700BFA991030803
:100A90009999991964E700BF10B4044C8446134631
:100AA00020685DF8044B0A46614659E718020020A9
:100AB00010B4044C8446134620685DF8044B0A4683
:100AC00061464DE718020020002A3ED030B584462A
:100AD0000446084380070B462ED1032A07D82BE093
:100AE000043A25D01EF0803F22D1032A22D9206863
:100AF000194653F8045BA0F1013EA842A4462EEA31
:100B0000000E04F10404EBD09CF800000C78844241
:100B10001DD1E64668B11EF8010F11F8014FA2EB96
:100B20000E03A04203F1FF3311D11CEB0303F1D1FB
:100B3000002030BDA44619469CF800000C78A04265
:100B400005D1012AF4D0E646E4E710467047001BC1
:100B500030BD00BF88420ED98B1883420BD900EB01
:100B6000020C002A6ED0624613F801CD02F801CDC6
:100B70009942F9D170470F2A0FD8034602F1FF3C82
:100B8000002A5FD00CF1010C013B8C4411F8012BC1
:100B900003F8012F6145F9D1704740EA01039B0733
:100BA00051D1A2F1100370B501F1200C23F00F0513
:100BB00001F1100E00F11004AC441B095EF8105C4A
:100BC00044F8105C5EF80C5C44F80C5C5EF8085C61
:100BD00044F8085C5EF8045C44F8045C0EF1100E06
:100BE000E64504F11004E9D1013312F00C0F01EBDA
:100BF000031102F00F0400EB031328D0043C24F08F
:100C000003064FEA940C1E441C1F8E465EF8045BDC
:100C100044F8045FB442F9D10CF1010402F003027C
:100C200003EB840301EB840102F1FF3C4AB10CF1B8
:100C3000010C013B8C4411F8012B03F8012F614595
:100C4000F9D170BD704702F1FF3C03469AE7224696
:100C5000EAE700BF08B5062003F038F801200BF0E2
:100C60007DFF00BF2DE9F04F8946B1F90C10ADF5BD
:100C70002F7D804688040693D9F8643007D441F468
:100C8000005123F40053A9F80C10C9F86430C3F3E1
:100C900040319B0400F1C080164616F8013B1193C9
:100CA000002B00F0F486DFF854A70A918E460591D8
:100CB0008B46039107911AF8034014F008046FD192
:100CC000252B5DD131782246A1F12503701C532BD1
:100CD00061D8DFE813F0540060006000600060003D
:100CE000530460006000600060006000A500A50083
:100CF000A500A500A500A500A500A500A500A500CC
:100D000060006000600060006000600060006000E3
:100D100060006000C303B0006000B00060006000CD
:100D2000600060003F0460006000B7036000600086
:100D3000600060006000600060006000950360007B
:100D400060004804600060006000600060006000B7
:100D50006000CC03D603B000B000B000D803E003BD
:100D6000600060001A046000260473063B04600003
:100D70006000C003600075066000600095030646D1
:100D8000D9F80430002B3BDDD9F8003016F8012CDF
:100D90001978914221D003980DF52F7DBDE8F08F91
:100DA000D9F804200FE0D9F800301A781AF8022098
:100DB000170703F101030ED5D9F80420013AC9E958
:100DC00000320BF1010B002AEDDC4946404601F0F0
:100DD0001DFE0028E7D002960AE00133C9F8003072
:100DE000D9F804300296013B0BF1010BC9F804302D
:100DF000029E16F8013B1193002B7FF45CAFCAE70B
:100E00004946404601F002FE0028BDD0039B1BB1BD
:100E1000B9F80C305B06BED54FF0FF330393BAE749
:100E200014F08F0FB7D102EB820201EB4202303A8D
:100E30007178064648E702900425D9F80430002B63
:100E400000F3368349464046049201F0DFFD002856
:100E5000DCD114F0400F049A00F02A836B1E032BA0
:100E600000F2A286DFE813F0B1016C01B4000400C7
:100E70004046049203F034F9049A03680C93531E1D
:100E8000B3F5AE7F44F4F06440F28C846FF4AE703E
:100E900013180F9340F25D12002556ABCDE90D55A6
:100EA0002E4604950B95CDF820800993C8461F4621
:100EB000A94625461446D8F800000378A3F12B0C68
:100EC000BCF14E0F50D8DFE81CF03B024F003B0254
:100ED0004F004F0085027B007B007B007B007B0086
:100EE0007B007B007B007B004F004F004F004F00DA
:100EF0004F004F004F0041027900790079001F0236
:100F000014024F004F00C3014F004F004F004F002D
:100F100071024F006E024F004F004F0069024F00F8
:100F20004F004F0053024E024F004F004F004F0042
:100F30004F004F004F0041027900790079001F02F5
:100F400014024F004F00C3014F004F004F004F00ED
:100F500071024F006E024F004F004F0069024F00B8
:100F60004F004F0053024E020C9A92F800C09C456D
:100F700017D1AA0515D5049A0B9225F4207507F808
:100F8000013B013CD8F80430013B002B0BF1010B75
:100F9000C8F8043040F307830130C8F80000002C83
:100FA00089D1049B2C4635464E46C146DDF820804B
:100FB000002B00F0628124F480745EE12A05F0D5F4
:100FC00019EB060CEDD1664625F4C075E146D6E76F
:100FD000531EB3F5AE7F88BF6FF4AE714FF00006BD
:100FE0008CBF5718002756AB88BF40F25D124946A8
:100FF000D946B346059E089744F4586409931D46A4
:101000001746086890F800C0ACF12B034D2B5FD851
:10101000DFE813F012025E0012025E005E00BC0206
:1010200018011801180118011801180118010B0204
:101030000B025E005E005E005E005E005E005E0011
:101040004E004E004E004E004E004E005E005E0010
:101050005E005E005E005E005E005E005E005E00A0
:101060005E005E005E005E005E005E005E00FF01EE
:101070005E005E005E005E005E005E005E005E0080
:101080004E004E004E004E004E004E005E005E00D0
:101090005E005E005E005E005E005E005E005E0060
:1010A0005E005E005E005E005E005E005E00FF01AE
:1010B0000A2E0DDD24F4386405F801CB4B68013BA2
:1010C000002B4B6040F37A8201300860013F98D1D9
:1010D00005965E46CB468946E10507D5099B9D42AC
:1010E00000F2AD84099B9D423FF455AE14F010020E
:1010F00040F07482059B079F09992A704046B847C3
:10110000069BA20603F1040700F16282630700F167
:10111000758414F0010240F05A82A40740F157820E
:10112000B44B079999424046059B099900F01785F1
:1011300002F048FF0B46069A1168C1E9000349E234
:10114000D9F800100B78002A1AF8033008BF4FF0C6
:10115000FF32E00704F0100603F0080300F1768286
:10116000002E00F02983002B7FF442AED9F8043022
:101170000131013B012AC9F80010C9F8043008BF49
:101180000BF1010B3FF434AE0124154613E0D9F8FE
:1011900000301A781AF80220160703F1010312D45E
:1011A000C9F80030D9F804300134013BA542C9F830
:1011B000043000F05684002BE9DC4946404601F03B
:1011C00025FC0028E3D0A34412E6002A08BF4FF014
:1011D000FF3204F01003E0070B9300F12C83D9F8E1
:1011E00000100B980B7816ACE35C002800F092829C
:1011F000002B3FF4D0ADD9F804300131013B012A76
:10120000C9F80010C9F8043018BF164610D117E00D
:10121000D9F800301A78A25C01338AB1C9F80030DD
:10122000D9F804300135013BAE42C9F8043007D08B
:10123000002BEDDC4946404601F0E8FB0028E7D0F2
:10124000AB44D5E56C4B24F4386433F9166033E7CE
:10125000002E40F0C881049A002A40F09C8205F4D8
:10126000E06CBCF5E06F00F015842C460023354699
:101270004E46C146DDF820800493013E012E40F227
:1012800050846B1E062B40F25983E50540F1B9816D
:10129000600500F1548417F8011C652907F1FF353A
:1012A0000BF1FF3602D0452940F07E834A46404686
:1012B00001F06EFB14F0100340F06C832B70B3460A
:1012C0000D9B002B40F0A48309990022404603F0B7
:1012D00009FF069BE10757EC106B03F1040540F191
:1012E00044831B6883ED000B039B06950133039336
:1012F0007EE5290503D519EB060C3FF464AE022EFA
:101300007FF44FAE03263AE629053FF559AE05F4C2
:10131000A06CBCF5806F05D06A057FF542AE049ADB
:10132000002AA2D0A90504D4049A0B99521ACDE937
:101330000D2725F47865002245F4C07504921EE659
:1013400029067FF52EAE25F0800518E62A0503D57F
:1013500019EB060C3FF437AEB9F1010F7FF421AE63
:101360004FF002090BE6072E7FF41BAE082606E6B7
:1013700005F4186CBCF5807F7FF413AE049A012A43
:101380007FF40FAE25F480754FF0300C002207F883
:1013900001CB45F40065013C0492F0E5062E7FF494
:1013A00000AE0726EBE52A05B1D4FAE5B9F1000F46
:1013B00040F02081049A2AB905F4E06CBCF5E06F96
:1013C00000F06D83012E02D0042E7FF4EAAD0136C9
:1013D000F6B2D4E5E9057FF5F3AD049B0133049340
:1013E0000F9B25F08005002B3FF4CBAD0F9B013BFD
:1013F0000F93C7E5950A000884910308A991030893
:10140000029044F400748D4B079310230593032539
:1014100013E504F4C063B3F5007F7FF459AE24F400
:10142000007444F4A064102646E6854B33F9166038
:10143000082E3FF73FAE4BE623067FF549AE24F07A
:10144000800439E6029044F001047C4B07930823A2
:1014500005930325F1E402900225EEE4029044F0A6
:101460000104784B07930A2305930325E5E40290D2
:1014700044F040040025D9F80430002B3FF7EEACCF
:10148000E0E40290EDE723077FF485AC717844F047
:101490000404064618E4D9F804300290002B694B86
:1014A00007934FF0000305934FF003057FF7CAAC95
:1014B000D9F800100B781AF8033018077FF5CEAC76
:1014C00016460A4606E0C9F8002013781AF80330D9
:1014D000190718D5D9F80430013B002B0BF1010B8B
:1014E000C9F8043002F10102EDDC4946404601F042
:1014F0008DFA00287FF48AACD9F8002013781AF806
:1015000003301907E6D43246A8E425077FF443AC3C
:1015100071786C2900F09C8244F001040646FFF7C4
:10152000D3BBE70602903FF563AC069B660753F812
:10153000042B00F16A82E507C2F800B004D4A407C6
:1015400002D54FEAEB715160069351E4029044F4E6
:10155000087458E721077FF41EAC717844F0020448
:101560000646FFF7B1BB014616A8049202F048FDFB
:1015700044F04004049A029001257CE722437FF462
:101580000AAC717810240646FFF79EBB23057FF551
:1015900093AD16B944F400740826620540F1C38186
:1015A00024F4B06488E50898414601F02FFA002839
:1015B0007FF4F7AC002C7FF47EACF2E4404604915B
:1015C00001F024FA049900283FF480AD80E5069BE1
:1015D0001B681860039B069701330393099BED1A60
:1015E0003544AB4404E4032E3FF4F1AE052E3FF442
:1015F000EEAED6E4B9F1020F7FF4E4AE4FF003098A
:10160000BDE414F010037FF4F3AB3B7004F4C0634B
:10161000B3F5806F7FF454AE0B9B049A93423FF472
:1016200053AE9A1A0DF2AB239F4228BF0DF2AA27A0
:101630000549384601F08AF946E600BF950A0008D8
:1016400084910308A91E00080CB30308002E40F083
:10165000A481069F57F804CB002B52D10025069792
:1016600064462F460496154603F040FEB8423FF408
:10167000CDABD9E9003113F8010B0139C9E90031CB
:101680000A9B56AA032BD055099207F1010714AE05
:1016900002D13368042B04D0082200213046FEF723
:1016A000DBFE099A00963B462146404600F098FD35
:1016B000421C0A903FF4AAAB002840F0D58120607C
:1016C00000F08AFD002840F01582BB44013D049BD8
:1016D000002B40F0EA8104341F46D9F80430002B77
:1016E00040F3F981D9F800301B781AF803301B0752
:1016F00001D4002DB8D1049E069FA446002E40F0D0
:10170000AD81039B0697013303930023CCF800308F
:10171000FFF76EBB069F57F8040B002B3FF43BAB63
:10172000D9F80430013BC9F804304B1CC9F800302B
:1017300006460B7806F8013B012A23D08518049051
:1017400011E0D9F800100B78E35C7BB3D9F80430D2
:10175000013BC9F804304B1CC9F800300B7806F87F
:10176000013BAE4222D0D9F80430002BE9DC4946D7
:10177000404601F04BF90028E3D00498B0423FF412
:1017800045AB351A039B0697013303930023AB4403
:101790003370FFF72DBB2C4635464E46C146DDF86B
:1017A000208008E400230F93FFF776BB0498351AD6
:1017B000002DE7D1FFF7EFBA069F57F8046B002B17
:1017C00040F0CB81D9F80430013BC9F804304B1C00
:1017D000C9F8003034460B7804F8013B012A00F0C8
:1017E000C381B51813E0D9F800301A781AF802202E
:1017F000100716D4D9F80420013AC9F804205A1C5D
:10180000C9F800201B7804F8013BAC4209D0D9F894
:101810000430002BE7DC4946404601F0F7F8002889
:10182000E1D0A61BB344039B069701330393002327
:101830002370FFF7DDBA002B40F0DE80069B53F8E3
:10184000047B06930A9CCDF820B000259346CDF882
:10185000108003F04BFDA8423FF4D8AAD9E900322A
:1018600056A813F8011B4155013A032CC9E900326F
:1018700005F101050DF1480803D1D8F80030042B1B
:1018800004D0082200214046FEF7E6FD39460498C0
:10189000CDF800802B4656AA00F0A2FC411C04465D
:1018A0003FF4B4AA002840F0BD803860064614AB6F
:1018B0000822002118460993FEF7CEFDB749099B7F
:1018C00004983246D1F8E06010A9B04701280CBF57
:1018D0009DF84060002616AB9B5D002B00F0E78072
:1018E000089B032C2B44089300F0A3800BF1FF3BD3
:1018F0000B9B03B90437D9F80430002B4FF00005D7
:101900006BDDBBF1000FA4D1DDF820B0DDF8108055
:101910000A940B9B002B7FF46BAA3B60039B013363
:101920000393FFF765BA089B24F4607413B1013B7D
:10193000089301370BF1010BFFF7C0BB022D40F2FA
:101940001E81032D3FF4A1AC043DEEB2F5433D44AE
:1019500017F8011D4A46404601F01AF8AF42F7D188
:101960000BF1FF3BABEB060B8FE4069BA2071B685A
:10197000049347D432463B463046394609F0F8FCDA
:10198000002840F0F4803046394609F04FFD049BB2
:101990001860A9E4B346FFF72BBA002B7FF428AAFE
:1019A000069F0DF1440C59E64A46404600F0F0FF10
:1019B000ABF1020617F8021CBD1E77E4029044E565
:1019C000774B07930A23029005930325FFF735BA57
:1019D000D9F80430002B3FF73CAF0498494601F09A
:1019E00015F800288DD0DDF820B0DDF810800A94BD
:1019F000002D8ED0FFF70ABA11AF23E7069B1B68B4
:101A00001880E7E583ED000B6EE4A2F800B09BE5DB
:101A10000E9F0A230022791C404600F045FA0D9BD8
:101A2000C21AFFE5821CD3D03E68731C7FF43FAF1F
:101A300051E7D8F80030042B7FF458AF58E715F879
:101A4000011C4A464046013D00F0A2FFFFF74ABB99
:101A5000B17844F002040236FFF736B90697FFF773
:101A6000C7B9AB44FFF7C4B90A9B02333FF435AEA4
:101A7000206800F0B1FB00283CD10A9B032BBB443B
:101A80007FF424AE3368042B7FF420AE1FE603936B
:101A9000FFF781B925F4F0650126FFF770BA25F448
:101AA000F0654FF00109FFF76ABA002715E6DDF887
:101AB00020B0DDF810800A94002D3FF42AAF56AB19
:101AC0005C19013D14F8011D4A46404600F060FFD4
:101AD000002DF6D11DE74946404600F097FF00284B
:101AE0003FF400AE3D46049E069FA446002D7FF4C1
:101AF0008DA903E63D46049E069FA446002D3FF4B3
:101B0000FDAD099CCDF810C02C44013D14F8011D19
:101B10004A46404600F03CFF002DF6D1DDF810C0EB
:101B2000ECE5099CA7427FF636A917F8011D4A4645
:101B3000404600F02DFFA742F7D1FFF72CB9099CD2
:101B4000A7427FF628A917F8011D4A46404600F033
:101B50001FFFA742F7D1FFF71EB9344663E605F031
:101B60001FFB0B46FFF7E7BA0BF1010B5BE60D48D5
:101B700002F064F9049B83ED000AFFF7B5BB099BF3
:101B80009F427FF608A917F8011D4A46404600F01B
:101B9000FFFE099B9F42F6D1FFF7FDB84C030020E2
:101BA000950A0008ECB30308012A38BF012204F0AB
:101BB000100714F00104164615D1002F6BD1069CB6
:101BC000134654F8041BCDF800900122404600F063
:101BD00039FF00283FF41AA9039B0694013383447C
:101BE0000393FFF705B9002F46D000230493002587
:101BF0002C460A9DCDF8208003F078FBA0423FF4EC
:101C000005A9D9E9003156AA13F8010B105501397D
:101C1000032D04F10108C9E9003114AC02D1226896
:101C2000042A04D0082200212046FEF715FC56AAFB
:101C3000049908980094434600F0D2FA421C0546E5
:101C40003FF4E4A800283CD1C344013E27B9049BDB
:101C50001F60049B04330493D9F80430002B4FF029
:101C600000043FDD002EC7D1DDF820800A95002F4B
:101C70003FF454AEFFF7BCB8069B53F8042B049214
:101C80000693B4E7C9F80010404649461C44F61ACA
:101C900000F0BCFE78B9D9E900239E4202EB0301B3
:101CA000F0DC9B1B32443444C9F80430C9F80020EE
:101CB000A344FFF79DB8002C3FF4A8A8A344FFF766
:101CC00097B8831C09D00328C34402D12368042B8E
:101CD00000D0013E002FBCD0BEE7D9F80410002987
:101CE000444689DC0898494600F090FE0028B9D0A7
:101CF000DDF820800A95002C7FF488A8002F3FF49F
:101D00000DAEFFF775B800BF13460A460146022024
:101D100000F0D6BA032A30B415D941EA0004A4076A
:101D200084460B4604D0541E0FE0043A032A08D917
:101D30001946604653F8044B5CF8045BA542F4D0A6
:101D4000F1E760461946541E7AB1431E0139021963
:101D500001E09A4209D013F8010F11F801CF604554
:101D6000F7D0A0EB0C0030BC7047002030BC7047AF
:101D7000242B2DE9F84F43D8012B41D08046494808
:101D80001F468E4675461EF801BB10F80B4014F036
:101D90000804F7D1BBF12D0F6FD0BBF12B0F08BF9B
:101DA0009EF800B06FF0004908BF05F1020E73BB4A
:101DB000BBF1300F4BD00A273B460025B9FBF7F6A5
:101DC000284607FB169A05E03AD007FB00C001251C
:101DD0001EF801BBABF1300CBCF1090F06D9ABF119
:101DE000410CBCF1190F19D8ABF1370C63451EDD5E
:101DF000B5F1FF3FECD08642E6D24FF0FF35E7E782
:101E000005F0F4F8162303600020BDE8F88F102BCE
:101E1000D3D1BBF1300F23D01F46CEE7ABF1610C1D
:101E2000BCF1190F03D8ABF1570C6345E0DC6B1C18
:101E30002BD054B9002AE8D085BB1160BDE8F88FDB
:101E4000E245C2DA4FF0FF35C2E74042F2E79EF8C2
:101E5000003003F0DF03582B08D008273B46ACE7DF
:101E60009EF8000000F0DF005828D5D110279EF81A
:101E700001B03B460EF1020E9FE79EF800B04FF016
:101E8000004905F1020E012491E72223C8F8003031
:101E900032B10EF1FF3148461160CFE78146F8E7D5
:101EA0004846B2E7A991030862E700BF10B4044CAA
:101EB0008446134620685DF8044B0A46614657E79E
:101EC0001802002010B4044C8446134620685DF8C4
:101ED000044B0A4661464BE71802002008B410B5CF
:101EE000002A9DB0044636DB4FF40273ADF814307F
:101EF0004FF000031B930291069120AB17D0013ADB
:101F00004FF6FF7104920792ADF816101F9A0193D5
:101F100002A903F065FA421C01DA8B232360029BBD
:101F200000221A701DB0BDE8104001B070474FF696
:101F3000FF7104920792ADF816101F9A019302A93F
:101F400003F04EFA431C01DA8B2323601DB0BDE879
:101F5000104001B070478B2303604FF0FF30F5E76E
:101F60000CB410B5214B00291C689CB038DB4FF035
:101F700000034FF402721B93ADF8142002900690F8
:101F80001FAB18D001394FF6FF7204910791ADF8DD
:101F9000162002A91E9A0193204603F021FA421C42
:101FA00001DA8B232360029B00221A701CB0BDE86B
:101FB000104002B070474FF6FF7204910791ADF8E0
:101FC000162002A91E9A0193204603F009FA431C29
:101FD00001DA8B2323601CB0BDE8104002B07047CB
:101FE0008B2323604FF0FF30F5E700BF180200207D
:101FF000024B0146186805F003B900BF1802002023
:10200000024B0146186806F03DBC00BF18020020D4
:10201000844641EA000313F003036DD1403A41D3F3
:1020200051F8043B40F8043B51F8043B40F8043BB2
:1020300051F8043B40F8043B51F8043B40F8043BA2
:1020400051F8043B40F8043B51F8043B40F8043B92
:1020500051F8043B40F8043B51F8043B40F8043B82
:1020600051F8043B40F8043B51F8043B40F8043B72
:1020700051F8043B40F8043B51F8043B40F8043B62
:1020800051F8043B40F8043B51F8043B40F8043B52
:1020900051F8043B40F8043B51F8043B40F8043B42
:1020A000403ABDD2303211D351F8043B40F8043BE2
:1020B00051F8043B40F8043B51F8043B40F8043B22
:1020C00051F8043B40F8043B103AEDD20C3205D3F2
:1020D00051F8043B40F8043B043AF9D2043208D0EA
:1020E000D2071CBF11F8013B00F8013B01D30B885C
:1020F00003806046704700BF082A13D38B078DD03A
:1021000010F003038AD0C3F10403D21ADB071CBF0B
:1021100011F8013B00F8013B80D331F8023B20F875
:10212000023B7BE7043AD9D3013A11F8013B00F8AE
:10213000013BF9D20B7803704B7843708B78837036
:102140006046704710B50C46B1F90E1005F042F824
:10215000002803DB236D0344236510BDA38923F40A
:102160008053A38110BD00BF002070472DE9F041CE
:102170000C46B1F90C101F46CB05054616460BD48C
:1021800021F48051A1813B46B4F90E103246284615
:10219000BDE8F04100F00EB9B4F90E1002230022A0
:1021A00006F0CCFCB4F90C10EAE700BF10B50C4601
:1021B000B1F90E1006F0C2FCB4F90C30421C0EBF8F
:1021C00023F4805343F480532065A38110BD00BFE6
:1021D000B1F90E1001F0CCBC002104F00DBF00BF1E
:1021E00070B50D4C82B0D4F8E460069C05462AB167
:1021F0000094B047431C08D002B070BD11460123C3
:10220000064A0094B047431CF6D100228A2322607C
:102210002B6002B070BD00BF4C030020ECB303087C
:1022200070B51C460F4B1D680F4B82B0D3F8E460AD
:1022300051B1944663460A46009401462846B04789
:10224000431C08D002B070BD0123084A0094284600
:10225000B047431CF6D100228A2322602B6002B0D3
:1022600070BD00BF180200204C030020ECB303082F
:1022700070B50F4B0F4DAB42A3EB050607D0B61060
:10228000002455F8043B01349847A642F9D836F0AB
:1022900085FE094D094B5E1BAB424FEAA60606D0F0
:1022A000002455F8043B01349847A642F9D870BD84
:1022B000A0DD0408A0DD0408A0DD0408C8DD0408D2
:1022C00070B4164D2C681CB365681F2D23DC38B91B
:1022D000AB1C0135656044F82310002070BC7047CA
:1022E00004EB850C0228CCF88820D4F888614FF0E4
:1022F000010202FA05F246EA0206C4F88861CCF847
:102300000831E5D1D4F88C311343C4F88C31DFE7C0
:10231000034C2C60D8E74FF0FF30DFE7C80F0020F8
:10232000C40C00202DE9F047DFF8749007460E46F4
:10233000904601F061FED9F800504DB133781C464B
:102340006BB1344602E014F8013F3BB13D2BFAD1AA
:10235000384601F053FE0020BDE8F087A41B286832
:102360000028F5D022463146FEF7AEFB28B9286892
:10237000035D3D2B00EB040A04D055F8040F002840
:10238000F0D1E5E7D9F80030EB1A9B103846C8F8D1
:10239000003001F033FE0AF10100BDE8F08700BF14
:1023A000B804002000B583B001AAFFF7BBFF03B05B
:1023B0005DF804FB38B50C46084D844611462046AE
:1023C0001A4600232B60644622F0D0F9431C00D04B
:1023D00038BD2B68002BFBD0236038BDCC0F00200C
:1023E00000207047024A0349034801F055BE00BF70
:1023F000400300207D8A0008200200200C4B416829
:10240000994210B5044601D006F038FBA168094B8B
:10241000994202D0204606F031FBE168064B994212
:1024200004D02046BDE8104006F028BB10BD00BF18
:10243000540E0020BC0E0020240F00200020704706
:102440002DE9F8432A4C2B49DFF8BC90DFF8BC801B
:10245000294FC4F83811002504230822294604F125
:102460005C00264EE360C4E90055C4E90455A5604C
:102470006566A561FDF7F0FF214B636708222946D9
:1024800004F1C400C4E90749C4E90987C4E91A553D
:10249000C4E91E552567C4F8CC50C4F88050E662E4
:1024A000FDF7DAFF174BC4F8DC30294604F1680366
:1024B000082204F59670C4F88430C4E92298C4E96F
:1024C0002476C4E93455C4E93855C4F8D850C4F862
:1024D0003451C4F8E850FDF7BFFF04F1D003C4E95C
:1024E0003C98C4E93E76C4F8EC30BDE8F88300BF00
:1024F000540E0020E5230008AD210008D12100087A
:102500000900010012000200452100086D210008A9
:10251000F8B5254BD3F838310646002B3CD0234F75
:10252000D7E90134013B04D51DE05A1C04F16804CD
:1025300019D0B4F90C50013B002DF6D11C4BE360CF
:10254000C4E90155C4E9045565662560A561082202
:10255000294604F15C00FDF77FFFC4E90C55C4E98E
:1025600011552046F8BD3D680DB12F46D8E74FF410
:10257000D671304604F044FE044680B10423C0E91D
:1025800000530C302946A0604FF4D0722546FDF769
:1025900063FF3C602F46C3E7FFF752FFBFE70C2302
:1025A00038603360DDE700BF540E00204003002098
:1025B0000100FFFF436B03B17047044B044AD3F89B
:1025C00038314263002BF7D13AE700BF540E0020A8
:1025D000FD230008704700BF704700BF024A03494F
:1025E000002001F059BD00BF40030020E123000896
:1025F000024A0349002001F04FBD00BF4003002004
:102600003D2400089368002B00F0F8802DE9F04F7E
:10261000B1F90CC01CF0080F83B0904681460C46FF
:1026200031D00B697BB31CF00207D8F8006038D0BA
:102630000027D4F824B0E169DFF8C4A23D4655452F
:102640002B463A4628BF53464846C5B1D8470028CE
:1026500040F3CA80D8F808301B1A07442D1AC8F86E
:102660000830002B00F0B68055452B46D4F824B036
:10267000E16928BF53463A464846002DE6D1D6E9DF
:1026800000750836DBE72146484606F03DF800288D
:1026900040F0AF80B4F90CC0D8F800601CF002071D
:1026A000C6D11CF0010A63D12368A16857461846B9
:1026B0008B46002F58D01CF4007F00F0B580B94243
:1026C0000A4600F2E1801CF4906F2FD02169626904
:1026D0005D1A02EB420202EBD2726B1C52103B44B9
:1026E000934292BF93469B461A461CF4806F00F0BB
:1026F000EA801146484604F083FD002800F0F98086
:102700002A4621690090FFF783FCA289009B22F4EE
:10271000906242F08002A2815819ABEB0505C4F823
:1027200014B02361A5602060BB463A465146009232
:10273000FEF710FAA1682368009AA1EB0B011A4476
:102740003D46A16022600027D8F808305B1BAA44F0
:10275000C8F80830002B3DD02368A168B4F90CC03C
:1027600018468B46002FA6D1D6E900A708369EE76B
:102770003846BB463D460097002D41D0002846D044
:10278000009A2068A168D4E90473AA4228BF2A46A7
:10279000B84204D901EB030A524500F38580934205
:1027A00075DCE169676A5A464846B847B0F1000AE5
:1027B0001ADD009BB3EB0A0300930FD00120D8F879
:1027C0000830A3EB0A03D344A5EB0A05C8F8083088
:1027D000002BD1D1002003B0BDE8F08F2146484640
:1027E00004F0CAFB0028EAD0B4F90C3043F04003EF
:1027F000A3814FF0FF3003B0BDE8F08F0020704799
:10280000756833460836002DFAD0D3F800B02A4652
:102810000A21584602F094FD002867D00130A0EB51
:102820000B0300931A46ACE722699A4214D36269FB
:10283000BA4211D86FF00043BB4228BF3B46656ADD
:1028400093FBF2F3E16902FB03F348465246A847C3
:10285000051EC9DD7F1B77E7B94228BF39460D4603
:1028600018460A465146FEF775F9A1682368491BC8
:102870002B44A16023600029ECD12146484604F096
:102880007BFB0028E6D0AFE7BB463A464EE7594609
:102890000192FEF75FF9019AA3689B1AA36023686F
:1028A00013442360924684E759465246FEF752F994
:1028B0002368534423602146484604F05DFB00280A
:1028C0003FF477AF90E7484606F05CF903460028EE
:1028D0007FF422AF2169484605F0D4FFB4F90C30EB
:1028E0000C22C9F8002023F080037FE76A1C0092C5
:1028F00047E70C22B4F90C30C9F8002076E700BF96
:1029000000FCFF7F002301461A461846FFF7D8BC9B
:102910000CB410B59CB01EAB029106916FF0004153
:1029200004910791084953F8042B0591002402A94A
:1029300001931B9402F054FD029B1C701CB0BDE877
:10294000104002B0704700BF0802FFFF0EB430B560
:102950009CB06FF000411FAB049107910A4953F8F6
:10296000042B029000240690084D0868019302A9E8
:1029700005951B9402F034FD029B1C701CB0BDE851
:10298000304003B0704700BF180200200802FFFF6C
:1029900038B54B1C1AD09389144623F02003526893
:1029A000A381236BCDB2A3B1636B934209DD23688E
:1029B0005A1E226003F8015C636801336360284695
:1029C00038BD214601F02EF80028F0D04FF0FF3539
:1029D000F5E7236921682BB18B4203D211F8013C42
:1029E000AB420ED02346C4E90E1204F1400003228C
:1029F0002063626303F8425F0122C4E90032284683
:102A000038BD01390132C4E90012D8E710B50C46CF
:102A1000096B69B104F14003994201D005F032FF1E
:102A2000E36B63600020206313B1A36B236010BDD0
:102A3000A2892369002142F020026160A2814FF047
:102A4000FF30F3E72DE9F04F85B0834602FB03F03A
:102A50000E9C019398B38846D4E90015A842064617
:102A600022D9CDE902024FF0000904F1400A4046A4
:102A70002A46FFF7CDFA2168236B4F19C4E9007984
:102A8000194637465846A844761BDBB1534501D05A
:102A900005F0F8FEE16BC4F83090616091B10D462D
:102AA000B542A16B2160E2D332464046FFF7B0FA4F
:102AB000D4E90032921B3344C4E90032019805B0D6
:102AC000BDE8F08FDDE90202A3892844C01B43F072
:102AD0002003B0FBF2F02269A3810023C4E90023A4
:102AE00005B0BDE8F08F00BF2DE9F04F8A46B1F97F
:102AF0000C10DDB08C0407930390DAF8643007D42F
:102B000041F4005123F40053AAF80C10CAF86430C1
:102B10009804C3F3403100F1A483164616F8013B34
:102B20000D93002B00F08986DFF8A08406918E4675
:102B30008B4689460591089118F8034014F0080463
:102B40006ED1252B5DD131782746A1F12503721C6A
:102B5000532B61D8DFE813F0540060006000600080
:102B600060002F0260006000600060006000D00024
:102B7000D000D000D000D000D000D000D000D000D5
:102B8000D0006000600060006000600060006000D5
:102B90006000600060002302600060006000600070
:102BA000600060006000270260006000310160008A
:102BB0006000600060006000600060006000DC0099
:102BC000600060003A01600060006000600060002A
:102BD00060006000A001A501600060006000AC0121
:102BE000B40160006000FA016000050201061C02E9
:102BF0006000600020026000040660006000DC00ED
:102C00001646DAF80430002B5BDDDAF8003019786C
:102C100016F8012C914232D005985DB0BDE8F08FD6
:102C2000DAF80430039F0AF1400500241A460FE049
:102C3000DAF800301A7818F80220120703F10103BD
:102C40003DD5DAF80420013ACAE9003209F1010958
:102C5000002AEDDCDAF830303846194613B3AB42BF
:102C600001D005F00FFEDAF83C30CAF83040CAF85F
:102C70000430BBB1DAF83830CAF80030DAE7013393
:102C8000CAF80030DAF804300496013B09F1010972
:102C9000CAF80430049E16F8013B0D93002B7FF414
:102CA0004BAFB9E7BAF80C3043F02003AAF80C3068
:102CB000DAF81030CAF800300023CAF8043004965D
:102CC000E8E7DAF83010002900F0B9820AF1400391
:102CD000994202D0039805F0D5FDDAF83C30CAF8E5
:102CE00004300022CAF83020002B00F0A882DAF865
:102CF0003830CAF800308AE714F08F0F8CD107EB18
:102D0000870701EB4701A1F13007717816461CE7F0
:102D1000049244F40074AB4B0893102306930323EE
:102D2000DAF80410002900F3D880DAF8301000290E
:102D300000F085820AF14000814204D00398099393
:102D400005F0A0FD099BDAF83C10CAF80410002039
:102D5000CAF83000002900F07282DAF83810CAF898
:102D60000010600640F1B980022B00F0FE81032BB9
:102D700000F02E81012B37D0012F04F0100238BF54
:102D8000012714F001040A9240F02E840A9B002BC4
:102D900040F0CC82079C039854F8041BCDF800A0A7
:102DA0003B460122FFF74EFE002800F05382059BB0
:102DB00007940133814405936CE7049244F00104C5
:102DC000804B0893082306930323A9E711461CA808
:102DD00001F016F944F0400404900123DAF80410DD
:102DE0000029A2DD012BC7D1002F04F0100208BF7B
:102DF0004FF0FF3714F001040A9240F08883DAF8AC
:102E000000600A9A31781CAD695C002A00F0CE821D
:102E100000293FF401AFDAF8041001360139012F1F
:102E2000CAF80060CAF8041000F020830AF14006D6
:102E3000CDF82490B14626461C4612E0DAF8001080
:102E40000878285C0131002800F00D83CAF80010D2
:102E5000DAF8041001340139A742CAF8041000F06E
:102E600002830029EADCDAF8303003981946002B97
:102E700000F024854B4501D005F004FDDAF83C1044
:102E8000CAF83060CAF80410002900F01785DAF893
:102E90003810CAF80010D3E7049244F0400400232D
:102EA0009CE70492484B08930A230693032337E7D1
:102EB00023077FF4B1AE717844F00404164644E66B
:102EC000DAF804300492002B3F4B08934FF00003D4
:102ED00006934FF003037FF728AFDAF8000001787C
:102EE00018F8011009077FF53FAF0AF14006099471
:102EF000002534464E46994608E00130CAF80000E5
:102F0000017818F801100A0740F19581DAF80410E9
:102F10000139002906F10106CAF80410EDDCDAF8DF
:102F2000303003981946002B00F08981A34201D06C
:102F300005F0A8FCDAF83C10CAF83050CAF80410C2
:102F4000002900F07C81DAF83800D7E720077FF409
:102F500063AE71786C2900F0508444F00104164689
:102F6000F3E5E70604923FF595AE079A660752F837
:102F7000043B079200F10084E50700F15A84A4079E
:102F800040F157844FEAE972C3F800905A6081E635
:102F9000049244F40874BEE604920223C0E604924C
:102FA00044F001047EE721077FF436AE717844F0E7
:102FB00002041646C9E527437FF42EAE717810242B
:102FC0001646C2E5950A0008A91E0008A991030843
:102FD0007B1E262B44F4586440F24781A7F1270357
:102FE0000B932727002312AE1A4609930AF14003D8
:102FF00035460A933346069EDAF8001091F800C071
:10300000ACF12B004D283AD8DFE800F07E397E394C
:1030100039896D6D6D6D6D6D6D83833939393939D0
:10302000393927272727272739393939393939397C
:1030300039393939393939393973393939393939C6
:10304000393927272727272739393939393939395C
:10305000393939393939393939730A2E0FDD24F4C0
:10306000386405F801CBDAF8040001380028CAF802
:10307000040060DD0131013FCAF80010BCD10696A2
:103080001E46E10505D5B54200F29783B5423FF4EF
:10309000C3AD14F0100240F0C980069B089F03984E
:1030A0002A703146B847079BA20603F1040700F1D6
:1030B000B780630700F15C8314F0010240F0AF8039
:1030C000A10740F1AC80B74B089903989942069B41
:1030D000314600F08B8400F075FF0B46079A1168AB
:1030E000C1E900039EE0B04824F4386430F916606A
:1030F000B7E704F4C060B0F5007FC0D124F40074D9
:1031000044F4A0641026ACE72006B8D524F080046F
:10311000A7E7A54830F91660082EA0DCAFE7200528
:103120009FD516B944F400740826600540F1AA82C0
:1031300024F4B06495E7DAF83010002900F08283B7
:103140000A98814205D00398069305F09BFB069BE5
:103150000022DAF83C10CAF83020CAF8041000291E
:1031600000F07083DAF8381085E7DAF800000378A9
:10317000002F18F8035008BF4FF0FF37E10704F0A5
:10318000100205F0080573D4002A00F07181002DAB
:103190007FF480ADDAF804300130013B012FCAF82A
:1031A0000000CAF8043008BF09F101093FF472AD0C
:1031B0000AF14006324601242E46154614E0DAF89C
:1031C0000030197818F80110090703F1010300F124
:1031D000E780CAF80030DAF804300134013BA74236
:1031E000CAF8043000F00F83002BE8DCDAF8303046
:1031F00003981946002B00F0A083AB4201D005F0E4
:1032000041FBDAF83C30CAF83060CAF80430002BD1
:1032100000F09383DAF83830CAF80030D1E7079B22
:103220001B681860059B079701330593099BAD1B2D
:103230001D44A9442EE54B46099CB14694E5DAF8B5
:103240001010BAF80C300022CAE9001243F0200333
:10325000AAF80C30059B23B1BAF80C305B067FF559
:10326000DBAC4FF0FF330593D6E400230B93B9E6B4
:10327000002A00F01E82002D7FF40CAD079C0DF19A
:10328000340C00250A945E462C460792654602F0EF
:103290002DF8A042DED0DAE900210DF1480B12F83A
:1032A000010B0BF80400631C0139032ECAE900214D
:1032B000099310AC02D12368042B04D0082200210A
:1032C0002046FDF7C9F85A46099B03980094294601
:1032D000FEF786FF421C0646BCD0002840F09682CE
:1032E0002860FEF779FF002840F05C83099B994431
:1032F000013F079B002B40F0A38204351C46DAF8FF
:103300000420002A40F3ED82DAF80020127818F841
:103310000220100701D4002FB9D10A9C079AAC46AD
:10332000B346002A00F0CB810794B3E4DAE9001336
:10333000BB4280F25483DAF8302018460AF1400686
:10334000CDE9099B13462546A346B14602461144E2
:10335000CAF800105E463C46039819469344BF1ACB
:10336000002B00F032824B4501D005F08BFADAF8E1
:103370003C20CAF83050CAF80420002A00F0258208
:10338000DAF83810CAF8001097424FF00003DEDC7C
:10339000DDE9099B13463444DB1B3944CAE90013B9
:1033A000A14477E4950A0008AC920308079A52F802
:1033B000040B00293FF430ACDAF804100139CAF8E4
:1033C0000410711CCAF800100446317804F8011B7F
:1033D000012F40D0C619CDF81C900AF14007B14624
:1033E00009900A9E0B9211E0DAF800100878285C28
:1033F00048B3DAF804000138CAF80400481CCAF8D7
:103400000000097804F8011B4C451CD0DAF80410C0
:103410000029E9DCDAF8303003981946002B00F077
:103420003682BB4201D005F02DFADAF83C10CAF81A
:103430003060CAF80410002900F02982DAF8381048
:10344000CAF80010D2E70998DDF81C900B9A231AED
:10345000002B3FF4E1AB9944059B079201330593A0
:103460000023237016E4DDF824902346994411E4E8
:10347000079951F8042B002D40F0B382DAF804309C
:10348000013BCAF80430431CCAF8003014460378E4
:1034900004F8013B012F00F0A682D61907910AF12A
:1034A0004007099216E0DAF80010087818F80000D2
:1034B000020701F1010300F1F080DAF80400CAF814
:1034C00000300138CAF80400097804F8011BB4423E
:1034D00000F0E380DAF804100029E4DCDAF8303098
:1034E00003981946002B00F01682BB4201D005F06C
:1034F000C9F9DAF83C10CAF83050CAF804100029AB
:1035000000F00982DAF83810CAF80010CDE7002A76
:1035100040F02081079B53F8042B09920793002465
:103520005D4601F0E3FEA0423FF494AEDAE90032DA
:1035300012A813F8011B0155013A032DCAE9003204
:1035400004F101040DF1380B03D1DBF80030042B3A
:1035500004D0082200215846FCF77EFF099E0398FC
:10356000CDF800B0234612AA3146FEF739FE431CBF
:1035700005463FF46FAE002840F0028130600646F9
:1035800010AB0822002118460B93FCF765FFB549E4
:103590000B9B03983246D1F8E0600CA9B047012894
:1035A0000CBF9DF8306000261CAB9B5D002B00F02B
:1035B0005D81032DA14400F0FA80013F0A9B13B9FD
:1035C000099B04330993DAF80430002B4FF0000410
:1035D00040F3A580002FA4D1AB460A9B002B7FF4BB
:1035E00059AB099A136048E0002A40F0908007998F
:1035F00051F8042B099207911C4612AE0B9301F06F
:1036000075FEA0423FF426AEDAE9002112F8010B64
:1036100030550139BBF1030FCAE9002104F101045F
:1036200010AD02D12B68042B04D0082200212846BB
:10363000FCF712FF09990398009523463246FEF7DE
:10364000CFFDB0F1FF3F83463FF404AE002840F0C9
:103650009F800A9BA144013F23B9099A1360099BEB
:1036600004330993DAF804200B9C002A34DD002F80
:10367000C5D10A9B002B7FF40DAB059B013305934D
:10368000FFF708BB0B9824F4607410B101380B905D
:103690000137099801300990E5E4099A0799A31ABE
:1036A0009944059B07910133059300232370FFF78D
:1036B000F1BA079C54F804CB002D3FF4E2AD059B12
:1036C0000794013305930023CCF80030FFF7E2BAEA
:1036D000DAF80420002A92DCDAF83010002900F031
:1036E0004E810AF14002914202D0039805F0CAF8D7
:1036F000DAF83C20CAF804200023CAF83030002A47
:1037000000F03D81DAF83820CAF80020AFE7002247
:10371000099271E7DAF80430002B3FF702AFDAF8CC
:103720003010002900F019810AF14003994202D0BB
:10373000039805F0A7F8DAF83C30CAF80430002204
:10374000CAF83020002B00F00881DAF83830CAF8C7
:1037500000303FE70DAB0993E1E60492FFF730BB81
:10376000414B08930A23069304920323FFF7D8BA28
:10377000079B1B68188055E5A3F80090FFF78ABAED
:10378000861CC7D0099B1E68701C7FF4F9AE0BE73E
:1037900010F1020F9CD00328A14402D12A68042A08
:1037A00000D0013F0A9B002B3FF459AF5AE7DBF8EA
:1037B0000030042B7FF401AF00E715F8011C0398DB
:1037C0005246013DFFF7E4F860E4BAF80C30DDF84A
:1037D000249043F02003AAF80C30DAF81030CAF82D
:1037E00000305C460023DDF828B0CAF80430002C15
:1037F0003FF430ADA144FFF74DBAB17844F0020474
:103800000236FFF7A2B9B944FFF744BA831C00F0AF
:10381000C7802868FEF7E0FC002840F0C380099BC1
:10382000032E99447FF464AD2268042A7FF460ADCE
:103830005FE5C3F80090FFF72DBA0593FFF7ECB9E9
:1038400000245CE506961E46BAF80C3043F02003CF
:10385000AAF80C30DAF81030CAF800300023CAF8A1
:1038600004300EE44C030020950A0008AB46002CFF
:103870003FF4B3AE12AB039E1D19013C15F8011DB8
:1038800052463046FFF784F8002CF6D1A5E6BAF888
:103890000C300998DDF81C900B9A43F02003AAF82D
:1038A0000C30DAF81030CAF80030A0424FF00003B4
:1038B000CAF804303FF4CEAC231ACCE5BAF80C2099
:1038C000DDF8249042F02002AAF80C20DAF810204B
:1038D000CAF8002023460022CAF804209944FFF7C2
:1038E000D9B9DAF83010002900F085800AF14002D9
:1038F000914202D0039804F0C5FFDAF83C20CAF8E0
:1039000004200021CAF83010002A74D0DAF83820D8
:10391000CAF80020FAE4099A0799A31A9944BAF858
:103920000C3043F02003AAF80C30DAF81030CAF853
:1039300000300023CAF80430B3E6BAF80C3043F084
:103940002003AAF80C30DAF81030CAF8003000234F
:10395000A144CAF80430FFF79DB9BAF80C3043F01F
:103960002003AAF80C30DAF81030CAF8003000232F
:10397000AB46CAF80430002C3FF42FAE6AE4BAF824
:103980000C3043F02003AAF80C30DAF81030CAF8F3
:1039900000300023CAF80430002C3FF46AAE59E42A
:1039A000099CACE4AC46DDE909545B46079AB34692
:1039B0001E46002D3FF4B5AC2E4407943446039EBA
:1039C00009926746013D14F8011D52463046FEF744
:1039D000DFFF002DF6D1079C099ABC46A1E43C46C6
:1039E000DAE414465DE609F101095AE603F0D8FB72
:1039F0000B46FFF773BBBAF80C30079A43F020036D
:103A0000AAF80C30DAF81030CAF80030AC460023BF
:103A10002546B3460A9CCAF80430002D7FF41AAC40
:103A20007FE400BF01F140032DE9F0410C46096B32
:103A3000994214D0666B77003A4605F0A3F8054624
:103A400030B300EB0608014632464046FEF7E0FA86
:103A5000C4E90C57C4F800800020BDE8F0814FF4A1
:103A6000806103F0CDFB98B194F842304FF480624E
:103A7000C4E90C0280F8FF3394F8413080F8FE333B
:103A800094F8402080F8FD2300F2FD332360E3E743
:103A90004FF0FF30E1E700BF70B54C1C2BD00E4655
:103AA0000546144610B1436B002B4CD0B4F90C30D2
:103AB00023F020025807A28106D4D9061BD51B0784
:103AC00034D442F00402A281226B6368F6B2AAB138
:103AD000626B9A4209DD23685A1E226003F8016C6A
:103AE000636801336360304670BD21462846FFF7A6
:103AF00099FF0028EFD04FF0FF36F4E722692168E4
:103B00002AB18A4203D211F8012CB2421ED02246B9
:103B1000C4E90E1304F1400003232063636302F839
:103B2000426F0123C4E90023304670BD2146284678
:103B300003F022FA0028DED1B4F90C20A06022F0B4
:103B40000802A061BDE7FEF735FDAFE7013901339B
:103B5000C4E90013C7E700BF10B4044C03460A468B
:103B600020685DF8044B1946FFF796BF1802002045
:103B700038B5074D0022044608462A6008F0B6FF13
:103B8000431C00D038BD2B68002BFBD0236038BD10
:103B9000CC0F002038B5D0F818410CB1002038BD4A
:103BA0008021054603F02CFB0246C5F8180130B110
:103BB000031F7C3243F8044F9342FBD1EEE74FF0F2
:103BC000FF3038BD30B51F2983B0054609D8D0F87D
:103BD00018310C4653B153F8240043F8242003B0A5
:103BE00030BD162303604FF0FF30F8E780210192CB
:103BF00003F006FB019AC5F8180103460028F2D02D
:103C0000011F00F17C05002041F8040FA942FBD1FF
:103C1000E1E700BF1F2938B505461FD8D0F81821A5
:103C20000C466AB152F8213053B1012B06D0591C11
:103C300010D0002142F8241020469847002038BDBB
:103C4000284602F0C3FD224601462846BDE838401A
:103C500002F0A6BD16230360012038BD16230360C1
:103C60004FF0FF3038BD00BF1F292CD838B5D0F831
:103C700018310C460546A3B153F8242003EB840306
:103C80004AB1511C0BD0012A07D0002520461D60E7
:103C90009047284638BD012038BD032038BD02209A
:103CA00038BD802103F0ACFA0346C5F8180138B1DD
:103CB000021F00217C3042F8041F8242FBD1DBE767
:103CC0004FF0FF3038BD4FF0FF30704738B5144B20
:103CD0001F281D681ED8D5F81821044662B152F875
:103CE00020304BB1012B05D0591C0FD0002142F8D8
:103CF00020109847002038BD284602F067FD224674
:103D000001462846BDE8384002F04ABD16232B6024
:103D1000012038BD16232B604FF0FF3038BD00BFA7
:103D200018020020124B1F2870B51E6809D8D6F85B
:103D3000183104460D464BB153F8240043F8245083
:103D400070BD162333604FF0FF3070BD80213046C8
:103D500003F056FA0346C6F818010028F3D0021FF4
:103D600000217C3042F8041F8242FBD1E4E700BF0F
:103D70001802002038B50C4B1D68D5F818410CB15D
:103D8000002038BD8021284603F03AFAC5F8180112
:103D900038B1031F00F17C0243F8044F9342FBD17A
:103DA000EEE74FF0FF3038BD1802002038B5184B51
:103DB0001F281D6828D80446D5F81801A0B150F86E
:103DC000243000EB84004BB15A1C0BD0012B07D0E0
:103DD0000025056020469847284638BD012038BD9B
:103DE000032038BD022038BD8021284603F008FAA0
:103DF000C5F8180140B1031F00F17C01002243F80F
:103E0000042F8B42FBD1DAE74FF0FF3038BD00BF03
:103E10001802002038B5074D074C2C1BA41005D004
:103E2000013C55F8043D9847002CF9D1BDE83840D5
:103E300035F0BAB8CCDD0408C8DD04089FED010AEE
:103E4000704700BF0000C07F2DE9F04F85B092465B
:103E50005B4A039089461E460D46294615F8014BDC
:103E6000135D13F00803F8D12D2C7DD02B2C41D0FD
:103E700002934FF0FF326FF00043CDE90023002E94
:103E800043D1302C79D00A27B0463E46DDE9000107
:103E90003A46434607F078FC00238E46834619468F
:103EA0001846A44610E08E4508BF83454CD000FB61
:103EB00008F307FB0133A0FB07010B44201843EB79
:103EC000E471012315F801CBACF13004092C05D9BC
:103ED000ACF14104192C1ED8ACF13704A64222DD06
:103EE000B3F1FF3FEED083457EEB0103DBD24FF011
:103EF000FF33E7E72C7802938D1C6FF000434FF0FF
:103F0000FF31CDE90013002EBBD0102E3ED0374636
:103F10004FEAE678BAE7ACF16104192C03D8ACF1AA
:103F20005704A642DCDC5A1C13D0029A12B140425C
:103F300061EB4101BAF1000F03D0002B3DD1CAF86B
:103F4000009005B0BDE8F08FA242B0DA4FF0FF3329
:103F5000B8E7039A22231360BAF1000F28D0DDE9F5
:103F6000000105F1FF39EAE700934FF0004001231B
:103F70002C78CDE901038D1C81E72B7803F0DF035A
:103F8000582B0ED00827B0463E467FE7302C03D092
:103F900037464FF0000879E72B7803F0DF03582B02
:103FA000F6D110276C784FF0000802353E466DE7D9
:103FB000DDE9000105B0BDE8F08FCDE90001CEE7F5
:103FC000A991030840E700BF10B4044C844613468F
:103FD00020685DF8044B0A46614635E71802002068
:103FE00010B4044C8446134620685DF8044B0A461E
:103FF000614629E718020020704700BF704700BFE4
:1040000070B50C785E2C864624D00023481C9C4654
:10401000002263F3070263F30F2263F3174263F393
:104020001F620EF58071734643F8042B8B42FBD15F
:1040300074B18CF001010EF80410451C15F8013C18
:104040002D2B0ED05D2B0AD01BB11C462846F2E763
:10405000013870BD01234C78881C9C46D8E728465F
:1040600070BD90F801C0BCF15D0FEED06445ECDC92
:10407000661C02300EEB060202F8011BA2EB0E03D7
:10408000013B9C45F8DCACEB0403013B6445A8BF55
:1040900000230235F418D1E72DE9F8430746884696
:1040A00016464FF00009D6E90154013D10D4A3890A
:1040B000012B08D9B4F90E3001332146384602D01D
:1040C000C04749EA0009013D6B1C04F16804EED1C8
:1040D0003668002EE7D14846BDE8F883F0307047D7
:1040E000004870473C040020004870473C04002012
:1040F0002DE9F04F2DED028B9DB0884600210792EF
:10410000189100220021CDE90412834641461791FF
:104110000F4611F8012B2D2A5ED801A050F822F08D
:10412000F3420008D9410008D9410008D9410008EC
:10413000D9410008D9410008D9410008D9410008F7
:10414000D94100080F4100080F4100080F41000845
:104150000F4100080F410008D9410008D94100086B
:10416000D9410008D9410008D9410008D9410008C7
:10417000D9410008D9410008D9410008D9410008B7
:10418000D9410008D9410008D9410008D9410008A7
:10419000D9410008D9410008D9410008D941000897
:1041A0000F410008D9410008D9410008D941000851
:1041B000D9410008D9410008D9410008D941000877
:1041C000D9410008D9410008D94100089B4800089E
:1041D000D9410008AF48000800210891302A00F0BA
:1041E0009780002309932F2A144640F202854FF04E
:1041F000000938464E464D4613E00130082D179011
:10420000C8BF09EB89090478C6BF02EB4902A2F1D5
:104210003009A3F130062F2C05F10105224640F3A9
:10422000B88006EB8603392C02EB4303E5DDB04989
:104230000122FCF749FC00287BD1179A1346013272
:1042400017925C78002D40F0A285302C40F09C85C0
:1042500013461846013317931C78302CF9D0C2F15D
:1042600001031844A4F13103082B36D8179F431CCF
:10427000A4F1300E0D9301253C464FF0000A06EBE9
:1042800086060EEB46060020631C17936478A4F1A3
:104290003002092A00F2F182179C01309646002A6A
:1042A000F2D00128D8BF05F1010C40F3FB8600EBEA
:1042B000050C0CF1FF3103E05E00A94200F0F2862C
:1042C000082D06EB860305F10105F5DD102DDCBF99
:1042D00009EB89094FEA4909EFE7652C40F0EA82CA
:1042E00000230122CDE90C239A46099B034340F0A9
:1042F000D282079B9FED7C8B0BB1C3F80080B0EEA0
:10430000480AF0EE680A1DB0BDEC028BBDE8F08FE4
:104310007A7802F0DF02582A00F02E8401371797CE
:104320003A78302AFAD0002A00F08F8201230993CC
:1043300059E70020CDE90C00AA46652C36D0452C63
:1043400034D000230E93002D7CD1099B034340F011
:104350007C820C9B002BCCD1692C00F0778400F37D
:104360007084492C00F072844E2CC2D1614917A888
:1043700004F0ECFD0028BCD0179B1B78282B00F024
:1043800083855D4804F0E4FEB0EE408AF0EE608A7A
:104390005DE257490122FCF797FB0028C9D1179B22
:1043A0000D905A1C17925C78AA4670E7002D9CD09D
:1043B000DDF85C8008F10103179398F801402B2C7D
:1043C00000F066822D2C00F05B824FF0000CA4F10F
:1043D0003001092900F24C82302C179B0AD101339D
:1043E00017931C78302CFAD0A4F13102082AA8D8EF
:1043F000A4F130015A1C17925C782F2C40F30D84E5
:1044000096460E9308E0013217929EF801402F2C39
:10441000A3F1300106DD964601EB8103392C04EB54
:104420004303F0DD0E9BD21A082A40F3F68344F6CC
:104430001F630E93BCF1000F85D00E9B5B420E9361
:10444000002D82D0DDE90D23BAF1000F08BFAA4686
:104450009B1A102D30460C932C46A8BF102406F052
:1044600073FC092D02460B46CDE9042316DD234BD0
:1044700003EBC40353E9122306F0E0FC024648466E
:104480009046894606F060FC02460B464046494687
:1044900006F01EFB0F2DCDE9040131DC0C9B002B37
:1044A00000F039830C9B40F36882162B40F3BC83E9
:1044B0000C9AC5F12503934222DB104CC5F10F0580
:1044C00004EBC501DDE90423D1E9000106F0B6FCE7
:1044D0000C9B5D1B04EBC504D4E9002306F0AEFC85
:1044E00041EC180BB3E100BF000000000000000029
:1044F00014B30308F8AF0308ECB30308509403089F
:104500000C9B2C1B1C44002C40F3DA8114F00F0090
:104510000AD03B4901EBC001DDE90423D1E90001E8
:1045200006F08CFCCDE9040134F00F034BD0B3F559
:104530009A7F00F3A083102BDFF8D8E04FEA231412
:1045400040F3E884DDE904234FF0000C0997F046BE
:10455000E146774614F0010F1046194607D0D8E916
:10456000002306F06BFC4FF0010C02460B46641072
:10457000012C09F1010908F10808EBD1BE46099F99
:10458000BCF1000F01D0CDE90423059BA3F15473C6
:104590000EEBC9010593DDE90423D1E9000106F022
:1045A0004DFC184BCDE904010B400A4616498B42DD
:1045B00000F2618315498B4240F24484144C4FF061
:1045C000FF33CDE904340023099300962B4652466D
:1045D0003946584604F07AFE1290002800F04B83CA
:1045E000DDE90D329B1A0C9A002AA8BF00230D9317
:1045F0004FF0000922EAE2731393CA46E6E000BFD7
:10460000509403080000F07F0000A07C0000907C24
:10461000FFFFEF7F40950308D21A1F2AA4EB020484
:1046200000F33B82012303FA02F500231093099B58
:1046300026444444A0451E444346A8BF2346B342F3
:10464000A8BF3346002B03DDE41AF61AA8EB0308D3
:104650000D9B002B00F3CA81002C00F3E0810C9B22
:10466000002B00F31082002E00F30282B8F1000F3D
:1046700008DD51464246584605F012F882460028A9
:1046800000F0FF8118993A46584605F0A3F8814694
:10469000002800F0F6810023C268C36051460E92E4
:1046A00005F076F80028C0F20284059E00F07C83B5
:1046B0005146484605F03AFA55EC104B00224FF0AF
:1046C00080432046294606F035FE002800F07E8112
:1046D0000E9B002B40F0EE81049B002B40F0788273
:1046E000C6F31303002B40F01982B14B0022204681
:1046F000294606F015FE002840F04D83AD4B002200
:104700002046294606F09AFB0A460146CDE91012DA
:1047100002F100430A900B93DFF8A082A64B06EA51
:1047200008089845DDE90A4500F0CB81099B1BB3D9
:10473000B8F1D46F20D89AA3D3E90023DDE91001A2
:1047400006F0F8FDA0B1DDE9100106F04FFE0128EA
:1047500038BF012006F0F8FA0E9BCDE91001002BBE
:1047600040F08F8201F1004314901593DDE9144568
:1047700005F1D663A3EB0805B0EE480AF0EE680A2F
:1047800005F0E4F8204653EC102B294606F056FBC2
:1047900053EC182B06F09CF9CDE904010C46099B5B
:1047A00023B9864B2340984500F0C181189958469B
:1047B00004F032FD3946584604F02EFD5146584665
:1047C00004F02AFD4946584604F026FD129C58463E
:1047D000616804F0FBFC0746002800F05281226962
:1047E0000232920004F10C010C30FDF711FC9DED3A
:1047F000048B1AAA19A95846B0EE480AF0EE680AC6
:1048000005F034F91890002800F012810121584673
:1048100004F008FE8246002800F03381199B002B2B
:10482000C0F221810D9A139E03EB0208099A1A9C8B
:104830009B1A2344624A013B9342C4F13604FFF6BB
:10484000EBAE002310930125F1E69FED578B079AFD
:104850000AB1179B1360089B002B3FF450AD18EE74
:10486000901A18EE102A01F1004343EC182B46E58C
:104870000023CDF85C800E9365E501230C935CE585
:104880004FF0010C08F10203179398F802409EE5DF
:104890004FF0000CF6E700258AE500220892791C0B
:1048A00017917A78002A3FF424AD0F4696E401224E
:1048B0000892F4E7452C3FF413AD01230C9344E533
:1048C0003FF481AE644214F00F020AD03D4B03EB7B
:1048D000C203DDE90401D3E9002306F0D9FBCDE9E9
:1048E000040124113FF46FAE1F2C40DC14F01003C0
:1048F00018BF6A230993DDE90423DFF8CC804FF069
:10490000000C14F0010F1046194607D0D8E9002317
:1049100006F094FA4FF0010C02460B46641008F1C1
:104920000808EED1BCF1000F01D0CDE90423099BAA
:10493000A3B1DDE90401C1F30A52C2F16B03002BFC
:104940000ADD1F2B40F327830020342B049040F313
:104950008E834FF05C7305936A230993DDE90401AC
:104960000022002306F0D2FC00283FF42EAE2223C2
:104970009FED0D8BCBF8003069E71633FFF6C0AD25
:10498000DDE90D329A1A0F4B03EBC203DDE9040196
:10499000D3E9002306F07CFB41EC180B57E700BF7E
:1049A0000000C0FFFFFFDF4100000000000000002A
:1049B0000000F03F0000E03F0000E07F0000F07FDB
:1049C00002FCFFFF50940308F8920308BE4B2046F8
:1049D0002946002206F032FA0E9BCDE91001002B89
:1049E00063D101F100430A900B9395E651461A46B4
:1049F000584604F0FBFD8246002842D00146189A32
:104A0000584604F03DFD00283BD00E9018995846BA
:104A100004F002FC0E9B1893002C7FF720AE18992F
:104A20002246584604F03CFE189000287FF417AE4A
:104A300005469FED978B2223CBF800302946584638
:104A400004F0EAFB3946584604F0E6FB5146584666
:104A500004F0E2FB1299584604F0DEFB4946584642
:104A600004F0DAFBF3E6139ADDF83480D61ADDE6BB
:104A700039463246584604F013FE074600287FF4B4
:104A8000F5AD189DD5E73946139A584604F0AEFDAA
:104A9000074600287FF4E7ADF3E78C4AD31A0122DA
:104AA00002FA03F310931546C1E59DED107B8DEDE1
:104AB0000A7B31E69FED787B8DED0A7B8DED107BD7
:104AC0002AE6A6F154730593DDE9044545EC104B45
:104AD00004F03CFFDDE90A2351EC100B06F0AEF9BF
:104AE00022462B4605F0F4FF794A7A4B0A409A4257
:104AF000CDE9040179D918EE902A03F154739A4252
:104B000003D118EE103A0133BBD0734C4FF0FF3392
:104B1000CDE904344AE69DED048B98E69FED607B79
:104B20008DED0A7B9FED5C7B8DED107BF4E5DDE97F
:104B300010562846314606F053FE06F051F902465B
:104B40000B462846314605F0C1FF0E9D049EC4F376
:104B50001304354302460B462543CDE90E2325D1E8
:104B600051A3D3E9002306F0DBFB00283FF41EAE7F
:104B70009DED048B189D61E70293089B019318AB90
:104B80000093564A19AB17A9584601F073FE10F06E
:104B90000F0504463FF459AE062D40F0A9800137B9
:104BA00000239FED438B1797089350E642A3D3E968
:104BB000002306F0B5FB0028DAD1DDE90E0140A3A1
:104BC000D3E9002306F0CAFB00283FF4EFADCFE79E
:104BD000049B012BA2D1002EA0D1189C22239FED73
:104BE000348B2546CBF8003028E701F15474059446
:104BF000D5E53B4901223846FBF766FF002800F067
:104C0000BA804FF000094E464846CDF834904D46E4
:104C1000CDF83090CA46FFF792BB44F61F63994225
:104C2000A8BF19460E9105E40C982E4901EBC0016E
:104C3000DDE90423D1E9000106F000F941EC180B8D
:104C400005E66E2C3FF492ABFFF753BB264917A83D
:104C500004F07CF900283FF44CAB179B2349013B3F
:104C600017A8179304F072F910B9179B0133179323
:104C70009FED078BEBE522239FED058BCBF80030F2
:104C8000E5E59DED107B8DED147B6FE5AFF30080C6
:104C9000000000000000F07F000000000000F03F76
:104CA000000000000000F0BF9535A094FFFFCF3F4B
:104CB00000000000000000009535A094FFFFDF3FDA
:104CC00035E5AF350000E03F0000E03FE2FBFFFFCD
:104CD0000000F07FFFFF9F7CFFFFEF7FD092030873
:104CE00014B303085094030818B303081CB3030853
:104CF000189A3AB135211AA804F068FF1899584655
:104D000004F08AFA013D199B042D00F2DE81DFE8F0
:104D100005F0032C291E03001A9A049203F2334271
:104D20001B9B23F4801343EA02530593E20502D54B
:104D300043F000430593B64A1A409DED048B002AC8
:104D40007FF485AD02F052F9222303607FE54FF036
:104D5000FF326FF00043CDE90423E3057FF5DBAEBE
:104D6000059BE5E7AA4B0593F7E7DDE91A121B9BC4
:104D7000CDE90412DAE7179A1346013217925C78EC
:104D800006468146FFF761BA0020FFF76BBAAA46D4
:104D90000D90FFF77CBA9FED9A7B8DED0A7B9FED1E
:104DA0009A7B8DED107BB7E40E9BDDF840C09949EE
:104DB000A846C6F31302002B49D08A4200F0F380C4
:104DC000BCF1000F37D1049B1D4237D0B0EE480A2A
:104DD000F0EE680A04F0BAFD099B51EC100B002BB1
:104DE00000F04D81C6F30A53C3F16B03002B07DDBE
:104DF0001C0504F17F53002203F5401306F01EF852
:104E000002460B4651EC180B05F062FE41EC180B04
:104E1000814B51EC180B002206F010F841EC180BF6
:104E20007B4B18EE902A1340002B7FF4A3AE222375
:104E3000CBF800309EE61CEA060FC7D1099B002B79
:104E4000E6D197E602F154730593FFF7BCBB002A45
:104E500064D1DDE90401002840F09680099B002B15
:104E600040F0F48021F00044240D2405A4F58014C2
:104E70006FEA14536FEA035305934FF0FF33049323
:104E80009DED048B189DD9E5644917A81AAA04F072
:104E900079F805287FF475AA1B9B43F0FF4343F480
:104EA000E00305931A9B04939DED048BCFE4DDE9A9
:104EB00004010E9B0343C1D1C1F31303002BBDD1E9
:104EC00021F00044240D2405B4F1D66F2546B5D950
:104ED000D9F814301BB9D9F81030012BAEDD494692
:104EE0000122584604F0DCFB5146814604F050FC98
:104EF0000028A3DD099B002BB8D0A5F580156FEA2B
:104F000015536FEA035305934FF0FF3304939DED60
:104F1000048B7DE74FF00009FFF737BBBCF1000FB2
:104F20002DD1049B1D4289D0B0EE480AF0EE680AEC
:104F300004F00CFD099B51EC100B002B72D0C6F352
:104F40000A53C3F16B03002B07DD1C0504F17F53EB
:104F5000002203F5401305F071FF02460B4651ECA9
:104F6000180B05F0B3FD02460B4643EC182B00224C
:104F7000002306F0CBF900283FF44AAF2DE61CEAE7
:104F8000060F3FF45BAFCFE7BCF1000FF7D128422B
:104F90003FF454AFC8E74FF0FF3202FA03F3049A2C
:104FA0001A400492D8E4099B0499B3B1184A3240DC
:104FB000B2F1D46F11D8120DC2F16B024FF0FF3075
:104FC00000FA02F291420BD0BCF1000F7FF433AF34
:104FD00011EA080F3FF432AFF8E64FF0FF32F1E785
:104FE0000F4A964255D00A4A324002F58013059383
:104FF000002304939DED048B20E700BFAFF30080F6
:10500000000000000000E0BF000000000000E03FE2
:105010000000F07FFFFF0F0000005039E49203080A
:10502000FFFFEF7F02460B4651EC180B05F04EFDDB
:10503000189C02460B4643EC182B00220023254601
:1050400006F064F900283FF4F9ACC7E5244D35407B
:10505000B5F1D66F3FF651AFB5F15C7F3FF6D8AEF4
:1050600022239FED1B8B189DCBF80030E6E4C2F1A4
:105070004B024FF0FF3393400B4005936CE4024624
:105080000B4651EC180B05F023FD189D41EC180B55
:10509000D4E40131A7D122239FED0F8B189DCBF8CB
:1050A0000030CBE40D9B082D03440D9302DC6546D4
:1050B000FFF7E5B8BCF1100FDCBF09EB890902EB83
:1050C000490965460020FFF7DFB800232EE600BF40
:1050D0000000000000000000000000000000F07F61
:1050E0000000F07F014BFFF703B800BF4C03002026
:1050F00010B4054C8446134620685DF8044B0A46FC
:105100006146FEF7F5BF00BF1802002010B4054C41
:10511000054B84460A4620685DF8044B6146FEF75D
:10512000E7BF00BF180200204C0300202DE9F0412A
:10513000DFF8A480044613462DED028B0A46D8F80A
:1051400000002146FEF7D4FF55EC104B22462B46BB
:105150002046294606F00CF950BB2046294606F0A9
:1051600065F908EE100ADFED197AB0EEC87AB4EEF0
:10517000677AF1EE10FA15DD25F00047144B4FF079
:10518000FF322046394606F0F3F838B9104B4FF09D
:10519000FF322046394606F0CDF818B1D8F8003075
:1051A00022221A60B0EE480ABDEC028BBDE8F08105
:1051B000002D084804DAFEF741FEB1EE408AF1E71F
:1051C000BDEC028BBDE8F041FEF738BEFFFF7F7FEC
:1051D000FFFFEF7FECB30308180200202DE97043B6
:1051E0002C4E2D4B04460A462DED028B214630688D
:1051F000FEF77EFF55EC104B22462B4620462946F3
:1052000006F0B6F8C0BB2046294606F00FF908EEB6
:10521000100ADFED227AB0EEC87AB4EE677AF1EECA
:1052200010FA1ADD25F000491D4B4FF0FF322046E1
:10523000494606F09DF838B9194B204649464FF0CB
:10524000FF3206F077F840B1336822221A60B0EEE0
:10525000480ABDEC028BBDE8708318EE103A13F0DB
:10526000FF4FF4D10F4B2B40002BEDD1B0EE480A8D
:10527000BDEC028BBDE87083002D0B4804DAFEF70D
:10528000DDFDB1EE408AE2E7BDEC028BBDE8704384
:10529000FEF7D4BD180200204C030020FFFF7F7FE3
:1052A000FFFFEF7F0000F07FECB3030842B110B5C1
:1052B0000B4910461446FBF7E3F918B9094810BD2D
:1052C0000848704707492046FBF7DAF90028F5D06F
:1052D00005492046FBF7D4F90028EFD0002010BD87
:1052E00028B3030824B30308ECB30308014B93F875
:1052F000280170474C03002041B110B50C462046F0
:105300000A49FBF7BDF918B9094810BD08487047AC
:1053100007492046FBF7B4F90028F5D00549204697
:10532000FBF7AEF90028EFD0002010BD28B303082A
:1053300024B30308ECB303080000000000000000E1
:1053400001F0FF01102A2BDB10F0070F08D010F836
:10535000013B013A8B422DD010F0070F42B3F6D13A
:10536000F0B441EA012141EA014122F007047FF053
:1053700000070023F0E80256083C85EA010586EAAA
:10538000010685FA47F5A3FA87F586FA47F6A5FAE6
:1053900087F68EB9EED1F0BC01F0FF0102F00702F2
:1053A00032B110F8013B013A83EA010313B1F8D19D
:1053B0000020704701387047002D06BF354603387E
:1053C000073815F0010F07D1013015F4807F02BFB7
:1053D000013015F4C03F0130F0BC0138704700BF08
:1053E0002DE9F04FBFB00C46079192460993089003
:1053F000FEF776FE036810931846FAF7C1FFA389FB
:105400000F901E0603D52369002B00F0A8869FEDA0
:10541000A47B0023CDE92233CDE911338DED0C7B44
:105420002EAA0E93219291460593D3469BF8003005
:10543000002B00F042815C4604E014F8013F002B91
:1054400000F01981252BF8D1B4EB0B0540F0168143
:105450002378002B00F031814FF000038DF8673086
:1054600000276378049704F1010B4FF0FF3A0BF12A
:10547000010B9846A8F12003582B00F22B81DFE89E
:1054800013F05202290129014D02290129012901A4
:1054900029012901290115024702290120022502BB
:1054A0002901420259005900590059005900590078
:1054B000590059005900290129012901290129010F
:1054C000290129012901290129016800A4012901D3
:1054D000A40129012901290129017D0229012901AC
:1054E000950029012901290129012901A600290185
:1054F000290146062901290129012901290129013A
:1055000029012901290129016F026A00A401A401CE
:10551000A4016A026A00290129015D022901B90278
:105520009700A802A302290182022901A8002901EB
:1055300029016606A8F1300300221BF8018B02EB5B
:10554000820203EB4202A8F13003092BF5D9049241
:1055500090E747F01007BD0640F17781099B0733BC
:1055600023F007031A46596852F8083B09920A4685
:105570000029C0F29581BAF1000F9DF8674007DB62
:1055800027F08001029153EA020100F0B283029FEA
:105590000A2B72F1000180F06D8630338DF8B73040
:1055A0000123029706930DF1B70550E047F010076D
:1055B00017F0200200F06081099B073323F00703F6
:1055C00019465A6851F8083B099100210FE047F04D
:1055D000100717F0200200F04581099B073323F0E4
:1055E000070319465A6851F8083B09910121002424
:1055F000BAF1000F8DF8674007DB27F080000290BA
:1056000053EA020000F07683029F0129C0D00229EC
:1056100000F0F1822EAD03F00701DB0843EA42738C
:10562000D208303153EA0206284605F8011DF2D1AE
:10563000FB0740F1EE82302900F0EB823023023884
:1056400005F8013C2EAB1B1A029706930546069BF4
:105650005345B8BF5346039300230B9314B1039BE8
:1056600001330393029B13F0020345D0039B0233E3
:105670000393022340E0B4EB0B051ED0239B2B4485
:105680002393229B0133072BC9E900B522930BDC3E
:1056900009F10809059B2B440593D9E6AFF3008077
:1056A0000000000000000000DDE9071021AA03F05F
:1056B0000FFC30B90DF1B809ECE7239B002B40F04B
:1056C0003C87079B9B895B0601F10C8005983FB0E6
:1056D000BDE8F08FB8F1000FEFD000238DF86730F0
:1056E00001238DF890800393069324AD4FF0000AB8
:1056F0000297CDF82CA05346029A239C12F0840204
:105700000A9205D1DDE90312561A002E00F3048334
:105710009DF867208AB1229A0DF1670101320134A8
:10572000C9F80010072A4FF0010123942292C9F80A
:10573000041000F32A8309F1080983B1229A1AA9F7
:1057400001320234C9F80010072A4FF002012394F5
:105750002292C9F8041000F3268309F108090A9B74
:10576000802B00F0BD81069BAAEB0306002E00F300
:10577000F981029BDE0500F14A81069BC9F80430DD
:105780001C44229BC9F800500133072B2394229319
:1057900000F3588209F10809029B5A0705D5DDE993
:1057A00003239D1A002D00F30A83DDE904230399E6
:1057B0008A42ACBF9B185B180593002C40F02E82E8
:1057C000002322930DF1B80930E6099B073323F03B
:1057D0000703B3EC027B55EC174B099325F000430C
:1057E00015938DED147ADDE91401B74B4FF0FF32BC
:1057F0008DED0C7B05F0BCFD002840F01084DDE948
:105800001401B14B4FF0FF3205F094FD002840F039
:105810000684002200232046294605F081FD002849
:1058200040F025869DF86740A84D27F0800302933D
:10583000A74BB8F1470FD8BF1D464FF0000A03230E
:1058400003930693CDF82CA008E7099AFC0652F8BA
:10585000043B09921FD478061DD543F3C03211468C
:105860001BB285E6099951F8043B099117F0100124
:1058700000F0CD830121BAE6099951F8043B099162
:1058800017F010017FF4A1AE17F040023FF49DAE77
:105890000A469BB299E6DA1711460029BFF66BAEAD
:1058A0005B4262EB42022D240121A1E6099B53F8E1
:1058B000042B0492002A80F2A283049A0993524294
:1058C00004929BF8003047F00407D0E55A4612F8DE
:1058D000018BB8F12A0F00F04E87A8F13003092B95
:1058E00098BF4FF0000A00F2B98612F8018B0AEB5C
:1058F0008A0A03EB4A0AA8F13003092BF5D94AEAD0
:10590000EA7A9346B6E59BF8003047F08007AEE5AB
:105910002B238DF867309BF80030A8E59BF800300A
:1059200047F00107A3E59DF867209BF80030002AA7
:105930007FF49DAD20228DF8672098E59BF800301C
:105940006C2B03BF9BF8013047F020070BF1010BD4
:1059500047F010078BE59BF8003047F0400786E5DD
:10596000099B00228DF8672053F8042B099301232B
:105970008DF890200393069324ADB7E69BF8003092
:1059800047F0080773E5099C54F8045B00268DF87E
:105990006760002D00F01285BAF1000FC0F21A8482
:1059A000524631462846FFF7CBFC002800F04586DA
:1059B000431B069323EAE3730994B2469DF86740BC
:1059C000029703930B9649E69BF8003047F02007B7
:1059D0004DE5099A52F8043B099247F63002ADF8BA
:1059E00068203C4A119247F00207002202214FF042
:1059F0007808FCE5BD0640F18183099B059A1B6888
:105A00001A60D2175A60099B043309930EE5B8F166
:105A1000650F40F32381DDE90C010022002305F02E
:105A200075FC002800F00782229B2B4AC9F8002051
:105A3000013301340122072B23942293C9F8042057
:105A400000F3958409F108091B9B0E9A934203DB2E
:105A5000029BDD077FF5A0AE0F9B109A1C44C9E99D
:105A60000023229B23940133072B229300F3998474
:105A700009F108090E9B5D1E002D7FF78DAE102DDC
:105A8000229B164F40F3D380DDE907A8102605E0DE
:105A900009F10809103D102D40F3C980013310347D
:105AA000072BC9E90076CDE92234F1DD21AA514660
:105AB000404603F00DFA00287FF403AEDDE92234FE
:105AC0000DF1B809E6E700BFFFFFEF7F34B303082D
:105AD00030B3030840B3030880B2030830930308CF
:105AE000DDE903239E1A002E7FF73DAE102E229B88
:105AF000B74F24DD4A462146A946DDE9075404E0B4
:105B0000103E102E02F1080216DD01331031102074
